{
  "_format": "hh-sol-artifact-1",
  "contractName": "Tasks",
  "sourceName": "contracts/Tasks.sol",
  "abi": [
    {
      "inputs": [
        {
          "internalType": "address payable",
          "name": "sender",
          "type": "address"
        },
        {
          "internalType": "string",
          "name": "_content",
          "type": "string"
        }
      ],
      "name": "createTask",
      "outputs": [],
      "stateMutability": "nonpayable",
      "type": "function"
    },
    {
      "inputs": [],
      "name": "getTasks",
      "outputs": [
        {
          "components": [
            {
              "internalType": "address",
              "name": "sender",
              "type": "address"
            },
            {
              "internalType": "string",
              "name": "content",
              "type": "string"
            },
            {
              "internalType": "bool",
              "name": "completed",
              "type": "bool"
            }
          ],
          "internalType": "struct Tasks.TaskStruct[]",
          "name": "",
          "type": "tuple[]"
        }
      ],
      "stateMutability": "view",
      "type": "function"
    },
    {
      "inputs": [],
      "name": "getTransactionCount",
      "outputs": [
        {
          "internalType": "uint256",
          "name": "",
          "type": "uint256"
        }
      ],
      "stateMutability": "view",
      "type": "function"
    },
    {
      "inputs": [],
      "name": "taskCount",
      "outputs": [
        {
          "internalType": "uint256",
          "name": "",
          "type": "uint256"
        }
      ],
      "stateMutability": "view",
      "type": "function"
    }
  ],
  "bytecode": "0x608060405234801561001057600080fd5b50610906806100206000396000f3fe608060405234801561001057600080fd5b506004361061004c5760003560e01c806304a87e38146100515780632e7700f01461006f5780638ebe2e701461008d578063b6cb58a5146100a9575b600080fd5b6100596100c7565b60405161006691906105eb565b60405180910390f35b610077610229565b604051610084919061060d565b60405180910390f35b6100a760048036038101906100a29190610458565b610232565b005b6100b1610332565b6040516100be919061060d565b60405180910390f35b60606001805480602002602001604051908101604052809291908181526020016000905b8282101561022057838290600052602060002090600302016040518060600160405290816000820160009054906101000a900473ffffffffffffffffffffffffffffffffffffffff1673ffffffffffffffffffffffffffffffffffffffff1673ffffffffffffffffffffffffffffffffffffffff1681526020016001820180546101749061076f565b80601f01602080910402602001604051908101604052809291908181526020018280546101a09061076f565b80156101ed5780601f106101c2576101008083540402835291602001916101ed565b820191906000526020600020905b8154815290600101906020018083116101d057829003601f168201915b505050505081526020016002820160009054906101000a900460ff161515151581525050815260200190600101906100eb565b50505050905090565b60008054905090565b600080815480929190610244906107d2565b9190505550600160405180606001604052808473ffffffffffffffffffffffffffffffffffffffff16815260200183815260200160001515815250908060018154018082558091505060019003906000526020600020906003020160009091909190915060008201518160000160006101000a81548173ffffffffffffffffffffffffffffffffffffffff021916908373ffffffffffffffffffffffffffffffffffffffff160217905550602082015181600101908051906020019061030b929190610338565b5060408201518160020160006101000a81548160ff02191690831515021790555050505050565b60005481565b8280546103449061076f565b90600052602060002090601f01602090048101928261036657600085556103ad565b82601f1061037f57805160ff19168380011785556103ad565b828001600101855582156103ad579182015b828111156103ac578251825591602001919060010190610391565b5b5090506103ba91906103be565b5090565b5b808211156103d75760008160009055506001016103bf565b5090565b60006103ee6103e98461064d565b610628565b90508281526020810184848401111561040657600080fd5b61041184828561072d565b509392505050565b600081359050610428816108b9565b92915050565b600082601f83011261043f57600080fd5b813561044f8482602086016103db565b91505092915050565b6000806040838503121561046b57600080fd5b600061047985828601610419565b925050602083013567ffffffffffffffff81111561049657600080fd5b6104a28582860161042e565b9150509250929050565b60006104b8838361058c565b905092915050565b6104c9816106d3565b82525050565b60006104da8261068e565b6104e481856106b1565b9350836020820285016104f68561067e565b8060005b85811015610532578484038952815161051385826104ac565b945061051e836106a4565b925060208a019950506001810190506104fa565b50829750879550505050505092915050565b61054d816106f7565b82525050565b600061055e82610699565b61056881856106c2565b935061057881856020860161073c565b610581816108a8565b840191505092915050565b60006060830160008301516105a460008601826104c0565b50602083015184820360208601526105bc8282610553565b91505060408301516105d16040860182610544565b508091505092915050565b6105e581610723565b82525050565b6000602082019050818103600083015261060581846104cf565b905092915050565b600060208201905061062260008301846105dc565b92915050565b6000610632610643565b905061063e82826107a1565b919050565b6000604051905090565b600067ffffffffffffffff82111561066857610667610879565b5b610671826108a8565b9050602081019050919050565b6000819050602082019050919050565b600081519050919050565b600081519050919050565b6000602082019050919050565b600082825260208201905092915050565b600082825260208201905092915050565b60006106de82610703565b9050919050565b60006106f082610703565b9050919050565b60008115159050919050565b600073ffffffffffffffffffffffffffffffffffffffff82169050919050565b6000819050919050565b82818337600083830152505050565b60005b8381101561075a57808201518184015260208101905061073f565b83811115610769576000848401525b50505050565b6000600282049050600182168061078757607f821691505b6020821081141561079b5761079a61084a565b5b50919050565b6107aa826108a8565b810181811067ffffffffffffffff821117156107c9576107c8610879565b5b80604052505050565b60006107dd82610723565b91507fffffffffffffffffffffffffffffffffffffffffffffffffffffffffffffffff8214156108105761080f61081b565b5b600182019050919050565b7f4e487b7100000000000000000000000000000000000000000000000000000000600052601160045260246000fd5b7f4e487b7100000000000000000000000000000000000000000000000000000000600052602260045260246000fd5b7f4e487b7100000000000000000000000000000000000000000000000000000000600052604160045260246000fd5b6000601f19601f8301169050919050565b6108c2816106e5565b81146108cd57600080fd5b5056fea26469706673582212203688f3f8f4e81fd10b87cd9e3ae69050c2cdb8e81cd1bee1c2a4f34b8dc830dc64736f6c63430008040033",
  "linkReferences": {},
  "deployedLinkReferences": {}
}